{
  "contractName": "Color",
  "abi": [
    {
      "inputs": [],
      "stateMutability": "nonpayable",
      "type": "constructor"
    },
    {
      "anonymous": false,
      "inputs": [
        {
          "indexed": true,
          "internalType": "address",
          "name": "owner",
          "type": "address"
        },
        {
          "indexed": true,
          "internalType": "address",
          "name": "approved",
          "type": "address"
        },
        {
          "indexed": true,
          "internalType": "uint256",
          "name": "tokenId",
          "type": "uint256"
        }
      ],
      "name": "Approval",
      "type": "event"
    },
    {
      "anonymous": false,
      "inputs": [
        {
          "indexed": true,
          "internalType": "address",
          "name": "owner",
          "type": "address"
        },
        {
          "indexed": true,
          "internalType": "address",
          "name": "operator",
          "type": "address"
        },
        {
          "indexed": false,
          "internalType": "bool",
          "name": "approved",
          "type": "bool"
        }
      ],
      "name": "ApprovalForAll",
      "type": "event"
    },
    {
      "anonymous": false,
      "inputs": [
        {
          "indexed": true,
          "internalType": "address",
          "name": "from",
          "type": "address"
        },
        {
          "indexed": true,
          "internalType": "address",
          "name": "to",
          "type": "address"
        },
        {
          "indexed": true,
          "internalType": "uint256",
          "name": "tokenId",
          "type": "uint256"
        }
      ],
      "name": "Transfer",
      "type": "event"
    },
    {
      "inputs": [
        {
          "internalType": "address",
          "name": "to",
          "type": "address"
        },
        {
          "internalType": "uint256",
          "name": "tokenId",
          "type": "uint256"
        }
      ],
      "name": "approve",
      "outputs": [],
      "stateMutability": "nonpayable",
      "type": "function"
    },
    {
      "inputs": [
        {
          "internalType": "address",
          "name": "owner",
          "type": "address"
        }
      ],
      "name": "balanceOf",
      "outputs": [
        {
          "internalType": "uint256",
          "name": "",
          "type": "uint256"
        }
      ],
      "stateMutability": "view",
      "type": "function"
    },
    {
      "inputs": [
        {
          "internalType": "uint256",
          "name": "",
          "type": "uint256"
        }
      ],
      "name": "colors",
      "outputs": [
        {
          "internalType": "string",
          "name": "",
          "type": "string"
        }
      ],
      "stateMutability": "view",
      "type": "function"
    },
    {
      "inputs": [
        {
          "internalType": "uint256",
          "name": "tokenId",
          "type": "uint256"
        }
      ],
      "name": "getApproved",
      "outputs": [
        {
          "internalType": "address",
          "name": "",
          "type": "address"
        }
      ],
      "stateMutability": "view",
      "type": "function"
    },
    {
      "inputs": [
        {
          "internalType": "address",
          "name": "owner",
          "type": "address"
        },
        {
          "internalType": "address",
          "name": "operator",
          "type": "address"
        }
      ],
      "name": "isApprovedForAll",
      "outputs": [
        {
          "internalType": "bool",
          "name": "",
          "type": "bool"
        }
      ],
      "stateMutability": "view",
      "type": "function"
    },
    {
      "inputs": [],
      "name": "maxSupply",
      "outputs": [
        {
          "internalType": "uint256",
          "name": "",
          "type": "uint256"
        }
      ],
      "stateMutability": "view",
      "type": "function"
    },
    {
      "inputs": [],
      "name": "name",
      "outputs": [
        {
          "internalType": "string",
          "name": "",
          "type": "string"
        }
      ],
      "stateMutability": "view",
      "type": "function"
    },
    {
      "inputs": [
        {
          "internalType": "uint256",
          "name": "tokenId",
          "type": "uint256"
        }
      ],
      "name": "ownerOf",
      "outputs": [
        {
          "internalType": "address",
          "name": "",
          "type": "address"
        }
      ],
      "stateMutability": "view",
      "type": "function"
    },
    {
      "inputs": [
        {
          "internalType": "address",
          "name": "from",
          "type": "address"
        },
        {
          "internalType": "address",
          "name": "to",
          "type": "address"
        },
        {
          "internalType": "uint256",
          "name": "tokenId",
          "type": "uint256"
        }
      ],
      "name": "safeTransferFrom",
      "outputs": [],
      "stateMutability": "nonpayable",
      "type": "function"
    },
    {
      "inputs": [
        {
          "internalType": "address",
          "name": "from",
          "type": "address"
        },
        {
          "internalType": "address",
          "name": "to",
          "type": "address"
        },
        {
          "internalType": "uint256",
          "name": "tokenId",
          "type": "uint256"
        },
        {
          "internalType": "bytes",
          "name": "_data",
          "type": "bytes"
        }
      ],
      "name": "safeTransferFrom",
      "outputs": [],
      "stateMutability": "nonpayable",
      "type": "function"
    },
    {
      "inputs": [
        {
          "internalType": "address",
          "name": "operator",
          "type": "address"
        },
        {
          "internalType": "bool",
          "name": "approved",
          "type": "bool"
        }
      ],
      "name": "setApprovalForAll",
      "outputs": [],
      "stateMutability": "nonpayable",
      "type": "function"
    },
    {
      "inputs": [
        {
          "internalType": "bytes4",
          "name": "interfaceId",
          "type": "bytes4"
        }
      ],
      "name": "supportsInterface",
      "outputs": [
        {
          "internalType": "bool",
          "name": "",
          "type": "bool"
        }
      ],
      "stateMutability": "view",
      "type": "function"
    },
    {
      "inputs": [],
      "name": "symbol",
      "outputs": [
        {
          "internalType": "string",
          "name": "",
          "type": "string"
        }
      ],
      "stateMutability": "view",
      "type": "function"
    },
    {
      "inputs": [
        {
          "internalType": "uint256",
          "name": "tokenId",
          "type": "uint256"
        }
      ],
      "name": "tokenURI",
      "outputs": [
        {
          "internalType": "string",
          "name": "",
          "type": "string"
        }
      ],
      "stateMutability": "view",
      "type": "function"
    },
    {
      "inputs": [
        {
          "internalType": "address",
          "name": "from",
          "type": "address"
        },
        {
          "internalType": "address",
          "name": "to",
          "type": "address"
        },
        {
          "internalType": "uint256",
          "name": "tokenId",
          "type": "uint256"
        }
      ],
      "name": "transferFrom",
      "outputs": [],
      "stateMutability": "nonpayable",
      "type": "function"
    },
    {
      "inputs": [
        {
          "internalType": "string",
          "name": "_color",
          "type": "string"
        }
      ],
      "name": "mint",
      "outputs": [],
      "stateMutability": "nonpayable",
      "type": "function"
    },
    {
      "inputs": [],
      "name": "totalSupply",
      "outputs": [
        {
          "internalType": "uint256",
          "name": "",
          "type": "uint256"
        }
      ],
      "stateMutability": "view",
      "type": "function"
    }
  ],
  "bytecode": "0x60806040523480156200001157600080fd5b506040518060400160405280600581526020017f436f6c6f720000000000000000000000000000000000000000000000000000008152506040518060400160405280600381526020017f434c520000000000000000000000000000000000000000000000000000000000815250816000908051906020019062000096929190620000b8565b508060019080519060200190620000af929190620000b8565b505050620001cd565b828054620000c69062000197565b90600052602060002090601f016020900481019282620000ea576000855562000136565b82601f106200010557805160ff191683800117855562000136565b8280016001018555821562000136579182015b828111156200013557825182559160200191906001019062000118565b5b50905062000145919062000149565b5090565b5b80821115620001645760008160009055506001016200014a565b5090565b7f4e487b7100000000000000000000000000000000000000000000000000000000600052602260045260246000fd5b60006002820490506001821680620001b057607f821691505b60208210811415620001c757620001c662000168565b5b50919050565b612c0680620001dd6000396000f3fe608060405234801561001057600080fd5b506004361061010b5760003560e01c806370a08231116100a2578063bd11f69d11610071578063bd11f69d146102b6578063c87b56dd146102e6578063d5abeb0114610316578063d85d3d2714610334578063e985e9c5146103505761010b565b806370a082311461023057806395d89b4114610260578063a22cb4651461027e578063b88d4fde1461029a5761010b565b806318160ddd116100de57806318160ddd146101aa57806323b872dd146101c857806342842e0e146101e45780636352211e146102005761010b565b806301ffc9a71461011057806306fdde0314610140578063081812fc1461015e578063095ea7b31461018e575b600080fd5b61012a600480360381019061012591906119b0565b610380565b60405161013791906119f8565b60405180910390f35b610148610462565b6040516101559190611aac565b60405180910390f35b61017860048036038101906101739190611b04565b6104f4565b6040516101859190611b72565b60405180910390f35b6101a860048036038101906101a39190611bb9565b610579565b005b6101b2610691565b6040516101bf9190611c08565b60405180910390f35b6101e260048036038101906101dd9190611c23565b6106a2565b005b6101fe60048036038101906101f99190611c23565b610702565b005b61021a60048036038101906102159190611b04565b610722565b6040516102279190611b72565b60405180910390f35b61024a60048036038101906102459190611c76565b6107d4565b6040516102579190611c08565b60405180910390f35b61026861088c565b6040516102759190611aac565b60405180910390f35b61029860048036038101906102939190611ccf565b61091e565b005b6102b460048036038101906102af9190611e44565b610934565b005b6102d060048036038101906102cb9190611b04565b610996565b6040516102dd9190611aac565b60405180910390f35b61030060048036038101906102fb9190611b04565b610a42565b60405161030d9190611aac565b60405180910390f35b61031e610ae9565b60405161032b9190611c08565b60405180910390f35b61034e60048036038101906103499190611f68565b610aee565b005b61036a60048036038101906103659190611fb1565b610c3d565b60405161037791906119f8565b60405180910390f35b60007f80ac58cd000000000000000000000000000000000000000000000000000000007bffffffffffffffffffffffffffffffffffffffffffffffffffffffff1916827bffffffffffffffffffffffffffffffffffffffffffffffffffffffff1916148061044b57507f5b5e139f000000000000000000000000000000000000000000000000000000007bffffffffffffffffffffffffffffffffffffffffffffffffffffffff1916827bffffffffffffffffffffffffffffffffffffffffffffffffffffffff1916145b8061045b575061045a82610cd1565b5b9050919050565b60606000805461047190612020565b80601f016020809104026020016040519081016040528092919081815260200182805461049d90612020565b80156104ea5780601f106104bf576101008083540402835291602001916104ea565b820191906000526020600020905b8154815290600101906020018083116104cd57829003601f168201915b5050505050905090565b60006104ff82610d3b565b61053e576040517f08c379a0000000000000000000000000000000000000000000000000000000008152600401610535906120c4565b60405180910390fd5b6004600083815260200190815260200160002060009054906101000a900473ffffffffffffffffffffffffffffffffffffffff169050919050565b600061058482610722565b90508073ffffffffffffffffffffffffffffffffffffffff168373ffffffffffffffffffffffffffffffffffffffff1614156105f5576040517f08c379a00000000000000000000000000000000000000000000000000000000081526004016105ec90612156565b60405180910390fd5b8073ffffffffffffffffffffffffffffffffffffffff16610614610da7565b73ffffffffffffffffffffffffffffffffffffffff16148061064357506106428161063d610da7565b610c3d565b5b610682576040517f08c379a0000000000000000000000000000000000000000000000000000000008152600401610679906121e8565b60405180910390fd5b61068c8383610daf565b505050565b600061069d6006610e68565b905090565b6106b36106ad610da7565b82610e76565b6106f2576040517f08c379a00000000000000000000000000000000000000000000000000000000081526004016106e99061227a565b60405180910390fd5b6106fd838383610f54565b505050565b61071d83838360405180602001604052806000815250610934565b505050565b6000806002600084815260200190815260200160002060009054906101000a900473ffffffffffffffffffffffffffffffffffffffff169050600073ffffffffffffffffffffffffffffffffffffffff168173ffffffffffffffffffffffffffffffffffffffff1614156107cb576040517f08c379a00000000000000000000000000000000000000000000000000000000081526004016107c29061230c565b60405180910390fd5b80915050919050565b60008073ffffffffffffffffffffffffffffffffffffffff168273ffffffffffffffffffffffffffffffffffffffff161415610845576040517f08c379a000000000000000000000000000000000000000000000000000000000815260040161083c9061239e565b60405180910390fd5b600360008373ffffffffffffffffffffffffffffffffffffffff1673ffffffffffffffffffffffffffffffffffffffff168152602001908152602001600020549050919050565b60606001805461089b90612020565b80601f01602080910402602001604051908101604052809291908181526020018280546108c790612020565b80156109145780601f106108e957610100808354040283529160200191610914565b820191906000526020600020905b8154815290600101906020018083116108f757829003601f168201915b5050505050905090565b610930610929610da7565b83836111bb565b5050565b61094561093f610da7565b83610e76565b610984576040517f08c379a000000000000000000000000000000000000000000000000000000000815260040161097b9061227a565b60405180910390fd5b61099084848484611328565b50505050565b600781815481106109a657600080fd5b9060005260206000200160009150905080546109c190612020565b80601f01602080910402602001604051908101604052809291908181526020018280546109ed90612020565b8015610a3a5780601f10610a0f57610100808354040283529160200191610a3a565b820191906000526020600020905b815481529060010190602001808311610a1d57829003601f168201915b505050505081565b6060610a4d82610d3b565b610a8c576040517f08c379a0000000000000000000000000000000000000000000000000000000008152600401610a8390612430565b60405180910390fd5b6000610a96611384565b90506000815111610ab65760405180602001604052806000815250610ae1565b80610ac08461139b565b604051602001610ad192919061248c565b6040516020818303038152906040525b915050919050565b600581565b6005610af8610691565b10610b38576040517f08c379a0000000000000000000000000000000000000000000000000000000008152600401610b2f906124fc565b60405180910390fd5b600881604051610b48919061251c565b908152602001604051809103902060009054906101000a900460ff1615610ba4576040517f08c379a0000000000000000000000000000000000000000000000000000000008152600401610b9b9061257f565b60405180910390fd5b610bae60066114fc565b6000610bba6006610e68565b9050600782908060018154018082558091505060019003906000526020600020016000909190919091509080519060200190610bf79291906118a1565b50610c023382611512565b6001600883604051610c14919061251c565b908152602001604051809103902060006101000a81548160ff0219169083151502179055505050565b6000600560008473ffffffffffffffffffffffffffffffffffffffff1673ffffffffffffffffffffffffffffffffffffffff16815260200190815260200160002060008373ffffffffffffffffffffffffffffffffffffffff1673ffffffffffffffffffffffffffffffffffffffff16815260200190815260200160002060009054906101000a900460ff16905092915050565b60007f01ffc9a7000000000000000000000000000000000000000000000000000000007bffffffffffffffffffffffffffffffffffffffffffffffffffffffff1916827bffffffffffffffffffffffffffffffffffffffffffffffffffffffff1916149050919050565b60008073ffffffffffffffffffffffffffffffffffffffff166002600084815260200190815260200160002060009054906101000a900473ffffffffffffffffffffffffffffffffffffffff1673ffffffffffffffffffffffffffffffffffffffff1614159050919050565b600033905090565b816004600083815260200190815260200160002060006101000a81548173ffffffffffffffffffffffffffffffffffffffff021916908373ffffffffffffffffffffffffffffffffffffffff160217905550808273ffffffffffffffffffffffffffffffffffffffff16610e2283610722565b73ffffffffffffffffffffffffffffffffffffffff167f8c5be1e5ebec7d5bd14f71427d1e84f3dd0314c0f7b2291e5b200ac8c7c3b92560405160405180910390a45050565b600081600001549050919050565b6000610e8182610d3b565b610ec0576040517f08c379a0000000000000000000000000000000000000000000000000000000008152600401610eb790612611565b60405180910390fd5b6000610ecb83610722565b90508073ffffffffffffffffffffffffffffffffffffffff168473ffffffffffffffffffffffffffffffffffffffff161480610f3a57508373ffffffffffffffffffffffffffffffffffffffff16610f22846104f4565b73ffffffffffffffffffffffffffffffffffffffff16145b80610f4b5750610f4a8185610c3d565b5b91505092915050565b8273ffffffffffffffffffffffffffffffffffffffff16610f7482610722565b73ffffffffffffffffffffffffffffffffffffffff1614610fca576040517f08c379a0000000000000000000000000000000000000000000000000000000008152600401610fc1906126a3565b60405180910390fd5b600073ffffffffffffffffffffffffffffffffffffffff168273ffffffffffffffffffffffffffffffffffffffff16141561103a576040517f08c379a000000000000000000000000000000000000000000000000000000000815260040161103190612735565b60405180910390fd5b6110458383836116ec565b611050600082610daf565b6001600360008573ffffffffffffffffffffffffffffffffffffffff1673ffffffffffffffffffffffffffffffffffffffff16815260200190815260200160002060008282546110a09190612784565b925050819055506001600360008473ffffffffffffffffffffffffffffffffffffffff1673ffffffffffffffffffffffffffffffffffffffff16815260200190815260200160002060008282546110f791906127b8565b92505081905550816002600083815260200190815260200160002060006101000a81548173ffffffffffffffffffffffffffffffffffffffff021916908373ffffffffffffffffffffffffffffffffffffffff160217905550808273ffffffffffffffffffffffffffffffffffffffff168473ffffffffffffffffffffffffffffffffffffffff167fddf252ad1be2c89b69c2b068fc378daa952ba7f163c4a11628f55a4df523b3ef60405160405180910390a46111b68383836116f1565b505050565b8173ffffffffffffffffffffffffffffffffffffffff168373ffffffffffffffffffffffffffffffffffffffff16141561122a576040517f08c379a00000000000000000000000000000000000000000000000000000000081526004016112219061285a565b60405180910390fd5b80600560008573ffffffffffffffffffffffffffffffffffffffff1673ffffffffffffffffffffffffffffffffffffffff16815260200190815260200160002060008473ffffffffffffffffffffffffffffffffffffffff1673ffffffffffffffffffffffffffffffffffffffff16815260200190815260200160002060006101000a81548160ff0219169083151502179055508173ffffffffffffffffffffffffffffffffffffffff168373ffffffffffffffffffffffffffffffffffffffff167f17307eab39ab6107e8899845ad3d59bd9653f200f220920489ca2b5937696c318360405161131b91906119f8565b60405180910390a3505050565b611333848484610f54565b61133f848484846116f6565b61137e576040517f08c379a0000000000000000000000000000000000000000000000000000000008152600401611375906128ec565b60405180910390fd5b50505050565b606060405180602001604052806000815250905090565b606060008214156113e3576040518060400160405280600181526020017f300000000000000000000000000000000000000000000000000000000000000081525090506114f7565b600082905060005b600082146114155780806113fe9061290c565b915050600a8261140e9190612984565b91506113eb565b60008167ffffffffffffffff81111561143157611430611d19565b5b6040519080825280601f01601f1916602001820160405280156114635781602001600182028036833780820191505090505b5090505b600085146114f05760018261147c9190612784565b9150600a8561148b91906129b5565b603061149791906127b8565b60f81b8183815181106114ad576114ac6129e6565b5b60200101907effffffffffffffffffffffffffffffffffffffffffffffffffffffffffffff1916908160001a905350600a856114e99190612984565b9450611467565b8093505050505b919050565b6001816000016000828254019250508190555050565b600073ffffffffffffffffffffffffffffffffffffffff168273ffffffffffffffffffffffffffffffffffffffff161415611582576040517f08c379a000000000000000000000000000000000000000000000000000000000815260040161157990612a61565b60405180910390fd5b61158b81610d3b565b156115cb576040517f08c379a00000000000000000000000000000000000000000000000000000000081526004016115c290612acd565b60405180910390fd5b6115d7600083836116ec565b6001600360008473ffffffffffffffffffffffffffffffffffffffff1673ffffffffffffffffffffffffffffffffffffffff168152602001908152602001600020600082825461162791906127b8565b92505081905550816002600083815260200190815260200160002060006101000a81548173ffffffffffffffffffffffffffffffffffffffff021916908373ffffffffffffffffffffffffffffffffffffffff160217905550808273ffffffffffffffffffffffffffffffffffffffff16600073ffffffffffffffffffffffffffffffffffffffff167fddf252ad1be2c89b69c2b068fc378daa952ba7f163c4a11628f55a4df523b3ef60405160405180910390a46116e8600083836116f1565b5050565b505050565b505050565b60006117178473ffffffffffffffffffffffffffffffffffffffff1661187e565b15611871578373ffffffffffffffffffffffffffffffffffffffff1663150b7a02611740610da7565b8786866040518563ffffffff1660e01b81526004016117629493929190612b42565b6020604051808303816000875af192505050801561179e57506040513d601f19601f8201168201806040525081019061179b9190612ba3565b60015b611821573d80600081146117ce576040519150601f19603f3d011682016040523d82523d6000602084013e6117d3565b606091505b50600081511415611819576040517f08c379a0000000000000000000000000000000000000000000000000000000008152600401611810906128ec565b60405180910390fd5b805181602001fd5b63150b7a0260e01b7bffffffffffffffffffffffffffffffffffffffffffffffffffffffff1916817bffffffffffffffffffffffffffffffffffffffffffffffffffffffff191614915050611876565b600190505b949350505050565b6000808273ffffffffffffffffffffffffffffffffffffffff163b119050919050565b8280546118ad90612020565b90600052602060002090601f0160209004810192826118cf5760008555611916565b82601f106118e857805160ff1916838001178555611916565b82800160010185558215611916579182015b828111156119155782518255916020019190600101906118fa565b5b5090506119239190611927565b5090565b5b80821115611940576000816000905550600101611928565b5090565b6000604051905090565b600080fd5b600080fd5b60007fffffffff0000000000000000000000000000000000000000000000000000000082169050919050565b61198d81611958565b811461199857600080fd5b50565b6000813590506119aa81611984565b92915050565b6000602082840312156119c6576119c561194e565b5b60006119d48482850161199b565b91505092915050565b60008115159050919050565b6119f2816119dd565b82525050565b6000602082019050611a0d60008301846119e9565b92915050565b600081519050919050565b600082825260208201905092915050565b60005b83811015611a4d578082015181840152602081019050611a32565b83811115611a5c576000848401525b50505050565b6000601f19601f8301169050919050565b6000611a7e82611a13565b611a888185611a1e565b9350611a98818560208601611a2f565b611aa181611a62565b840191505092915050565b60006020820190508181036000830152611ac68184611a73565b905092915050565b6000819050919050565b611ae181611ace565b8114611aec57600080fd5b50565b600081359050611afe81611ad8565b92915050565b600060208284031215611b1a57611b1961194e565b5b6000611b2884828501611aef565b91505092915050565b600073ffffffffffffffffffffffffffffffffffffffff82169050919050565b6000611b5c82611b31565b9050919050565b611b6c81611b51565b82525050565b6000602082019050611b876000830184611b63565b92915050565b611b9681611b51565b8114611ba157600080fd5b50565b600081359050611bb381611b8d565b92915050565b60008060408385031215611bd057611bcf61194e565b5b6000611bde85828601611ba4565b9250506020611bef85828601611aef565b9150509250929050565b611c0281611ace565b82525050565b6000602082019050611c1d6000830184611bf9565b92915050565b600080600060608486031215611c3c57611c3b61194e565b5b6000611c4a86828701611ba4565b9350506020611c5b86828701611ba4565b9250506040611c6c86828701611aef565b9150509250925092565b600060208284031215611c8c57611c8b61194e565b5b6000611c9a84828501611ba4565b91505092915050565b611cac816119dd565b8114611cb757600080fd5b50565b600081359050611cc981611ca3565b92915050565b60008060408385031215611ce657611ce561194e565b5b6000611cf485828601611ba4565b9250506020611d0585828601611cba565b9150509250929050565b600080fd5b600080fd5b7f4e487b7100000000000000000000000000000000000000000000000000000000600052604160045260246000fd5b611d5182611a62565b810181811067ffffffffffffffff82111715611d7057611d6f611d19565b5b80604052505050565b6000611d83611944565b9050611d8f8282611d48565b919050565b600067ffffffffffffffff821115611daf57611dae611d19565b5b611db882611a62565b9050602081019050919050565b82818337600083830152505050565b6000611de7611de284611d94565b611d79565b905082815260208101848484011115611e0357611e02611d14565b5b611e0e848285611dc5565b509392505050565b600082601f830112611e2b57611e2a611d0f565b5b8135611e3b848260208601611dd4565b91505092915050565b60008060008060808587031215611e5e57611e5d61194e565b5b6000611e6c87828801611ba4565b9450506020611e7d87828801611ba4565b9350506040611e8e87828801611aef565b925050606085013567ffffffffffffffff811115611eaf57611eae611953565b5b611ebb87828801611e16565b91505092959194509250565b600067ffffffffffffffff821115611ee257611ee1611d19565b5b611eeb82611a62565b9050602081019050919050565b6000611f0b611f0684611ec7565b611d79565b905082815260208101848484011115611f2757611f26611d14565b5b611f32848285611dc5565b509392505050565b600082601f830112611f4f57611f4e611d0f565b5b8135611f5f848260208601611ef8565b91505092915050565b600060208284031215611f7e57611f7d61194e565b5b600082013567ffffffffffffffff811115611f9c57611f9b611953565b5b611fa884828501611f3a565b91505092915050565b60008060408385031215611fc857611fc761194e565b5b6000611fd685828601611ba4565b9250506020611fe785828601611ba4565b9150509250929050565b7f4e487b7100000000000000000000000000000000000000000000000000000000600052602260045260246000fd5b6000600282049050600182168061203857607f821691505b6020821081141561204c5761204b611ff1565b5b50919050565b7f4552433732313a20617070726f76656420717565727920666f72206e6f6e657860008201527f697374656e7420746f6b656e0000000000000000000000000000000000000000602082015250565b60006120ae602c83611a1e565b91506120b982612052565b604082019050919050565b600060208201905081810360008301526120dd816120a1565b9050919050565b7f4552433732313a20617070726f76616c20746f2063757272656e74206f776e6560008201527f7200000000000000000000000000000000000000000000000000000000000000602082015250565b6000612140602183611a1e565b915061214b826120e4565b604082019050919050565b6000602082019050818103600083015261216f81612133565b9050919050565b7f4552433732313a20617070726f76652063616c6c6572206973206e6f74206f7760008201527f6e6572206e6f7220617070726f76656420666f7220616c6c0000000000000000602082015250565b60006121d2603883611a1e565b91506121dd82612176565b604082019050919050565b60006020820190508181036000830152612201816121c5565b9050919050565b7f4552433732313a207472616e736665722063616c6c6572206973206e6f74206f60008201527f776e6572206e6f7220617070726f766564000000000000000000000000000000602082015250565b6000612264603183611a1e565b915061226f82612208565b604082019050919050565b6000602082019050818103600083015261229381612257565b9050919050565b7f4552433732313a206f776e657220717565727920666f72206e6f6e657869737460008201527f656e7420746f6b656e0000000000000000000000000000000000000000000000602082015250565b60006122f6602983611a1e565b91506123018261229a565b604082019050919050565b60006020820190508181036000830152612325816122e9565b9050919050565b7f4552433732313a2062616c616e636520717565727920666f7220746865207a6560008201527f726f206164647265737300000000000000000000000000000000000000000000602082015250565b6000612388602a83611a1e565b91506123938261232c565b604082019050919050565b600060208201905081810360008301526123b78161237b565b9050919050565b7f4552433732314d657461646174613a2055524920717565727920666f72206e6f60008201527f6e6578697374656e7420746f6b656e0000000000000000000000000000000000602082015250565b600061241a602f83611a1e565b9150612425826123be565b604082019050919050565b600060208201905081810360008301526124498161240d565b9050919050565b600081905092915050565b600061246682611a13565b6124708185612450565b9350612480818560208601611a2f565b80840191505092915050565b6000612498828561245b565b91506124a4828461245b565b91508190509392505050565b7f4e6f20737570706c7920617661696c61626c6500000000000000000000000000600082015250565b60006124e6601383611a1e565b91506124f1826124b0565b602082019050919050565b60006020820190508181036000830152612515816124d9565b9050919050565b6000612528828461245b565b915081905092915050565b7f436f6c6f72206d75737420626520756e69717565000000000000000000000000600082015250565b6000612569601483611a1e565b915061257482612533565b602082019050919050565b600060208201905081810360008301526125988161255c565b9050919050565b7f4552433732313a206f70657261746f7220717565727920666f72206e6f6e657860008201527f697374656e7420746f6b656e0000000000000000000000000000000000000000602082015250565b60006125fb602c83611a1e565b91506126068261259f565b604082019050919050565b6000602082019050818103600083015261262a816125ee565b9050919050565b7f4552433732313a207472616e736665722066726f6d20696e636f72726563742060008201527f6f776e6572000000000000000000000000000000000000000000000000000000602082015250565b600061268d602583611a1e565b915061269882612631565b604082019050919050565b600060208201905081810360008301526126bc81612680565b9050919050565b7f4552433732313a207472616e7366657220746f20746865207a65726f2061646460008201527f7265737300000000000000000000000000000000000000000000000000000000602082015250565b600061271f602483611a1e565b915061272a826126c3565b604082019050919050565b6000602082019050818103600083015261274e81612712565b9050919050565b7f4e487b7100000000000000000000000000000000000000000000000000000000600052601160045260246000fd5b600061278f82611ace565b915061279a83611ace565b9250828210156127ad576127ac612755565b5b828203905092915050565b60006127c382611ace565b91506127ce83611ace565b9250827fffffffffffffffffffffffffffffffffffffffffffffffffffffffffffffffff0382111561280357612802612755565b5b828201905092915050565b7f4552433732313a20617070726f766520746f2063616c6c657200000000000000600082015250565b6000612844601983611a1e565b915061284f8261280e565b602082019050919050565b6000602082019050818103600083015261287381612837565b9050919050565b7f4552433732313a207472616e7366657220746f206e6f6e20455243373231526560008201527f63656976657220696d706c656d656e7465720000000000000000000000000000602082015250565b60006128d6603283611a1e565b91506128e18261287a565b604082019050919050565b60006020820190508181036000830152612905816128c9565b9050919050565b600061291782611ace565b91507fffffffffffffffffffffffffffffffffffffffffffffffffffffffffffffffff82141561294a57612949612755565b5b600182019050919050565b7f4e487b7100000000000000000000000000000000000000000000000000000000600052601260045260246000fd5b600061298f82611ace565b915061299a83611ace565b9250826129aa576129a9612955565b5b828204905092915050565b60006129c082611ace565b91506129cb83611ace565b9250826129db576129da612955565b5b828206905092915050565b7f4e487b7100000000000000000000000000000000000000000000000000000000600052603260045260246000fd5b7f4552433732313a206d696e7420746f20746865207a65726f2061646472657373600082015250565b6000612a4b602083611a1e565b9150612a5682612a15565b602082019050919050565b60006020820190508181036000830152612a7a81612a3e565b9050919050565b7f4552433732313a20746f6b656e20616c7265616479206d696e74656400000000600082015250565b6000612ab7601c83611a1e565b9150612ac282612a81565b602082019050919050565b60006020820190508181036000830152612ae681612aaa565b9050919050565b600081519050919050565b600082825260208201905092915050565b6000612b1482612aed565b612b1e8185612af8565b9350612b2e818560208601611a2f565b612b3781611a62565b840191505092915050565b6000608082019050612b576000830187611b63565b612b646020830186611b63565b612b716040830185611bf9565b8181036060830152612b838184612b09565b905095945050505050565b600081519050612b9d81611984565b92915050565b600060208284031215612bb957612bb861194e565b5b6000612bc784828501612b8e565b9150509291505056fea2646970667358221220b10942918ba10370123b1659b92c30e629d94a7c47edeb0e9c3821ce8b72f65664736f6c634300080c0033",
  "immutableReferences": {},
  "source": "// SPDX-License-Identifier: UNLICENSED\npragma solidity ^0.8.0;\n\nimport \"../node_modules/@openzeppelin/contracts/token/ERC721/ERC721.sol\";\nimport \"../node_modules/@openzeppelin/contracts/utils/Counters.sol\";\n\ncontract Color is ERC721 {\n\tusing Counters for Counters.Counter;\n\tCounters.Counter private _tokenIds;\n\n\tstring[] public colors;\n\tuint256 public constant maxSupply = 5;\n\tmapping(string => bool) _colorExists;\n\n\tconstructor() ERC721(\"Color\", \"CLR\") {}\n\n\t// E.G. color = \"#FFFFFF\"\n\t// TODO: should we emit an Event, what is it used for?\n\tfunction mint(string memory _color) public {\n\t\trequire(totalSupply() < maxSupply, \"No supply available\");\n\t\trequire(!_colorExists[_color], \"Color must be unique\");\n\n\t\t_tokenIds.increment();\n\t\tuint256 _newItemId = _tokenIds.current();\n\t\n\t\tcolors.push(_color);\n\n\t\t_mint(msg.sender, _newItemId);\n\t\t_colorExists[_color] = true;\n\t}\n\n\tfunction totalSupply() public view virtual returns (uint256) {\n\t\treturn _tokenIds.current();\n\t}\n}",
  "sourcePath": "/Users/stressgc/Desktop/nft-first-smart-contract/backend/contracts/Color.sol",
  "compiler": {
    "name": "solc",
    "version": "0.8.12+commit.f00d7308.Emscripten.clang"
  },
  "schemaVersion": "3.4.6",
  "updatedAt": "2022-03-12T18:08:54.842Z",
  "devdoc": {
    "kind": "dev",
    "methods": {
      "approve(address,uint256)": {
        "details": "See {IERC721-approve}."
      },
      "balanceOf(address)": {
        "details": "See {IERC721-balanceOf}."
      },
      "getApproved(uint256)": {
        "details": "See {IERC721-getApproved}."
      },
      "isApprovedForAll(address,address)": {
        "details": "See {IERC721-isApprovedForAll}."
      },
      "name()": {
        "details": "See {IERC721Metadata-name}."
      },
      "ownerOf(uint256)": {
        "details": "See {IERC721-ownerOf}."
      },
      "safeTransferFrom(address,address,uint256)": {
        "details": "See {IERC721-safeTransferFrom}."
      },
      "safeTransferFrom(address,address,uint256,bytes)": {
        "details": "See {IERC721-safeTransferFrom}."
      },
      "setApprovalForAll(address,bool)": {
        "details": "See {IERC721-setApprovalForAll}."
      },
      "supportsInterface(bytes4)": {
        "details": "See {IERC165-supportsInterface}."
      },
      "symbol()": {
        "details": "See {IERC721Metadata-symbol}."
      },
      "tokenURI(uint256)": {
        "details": "See {IERC721Metadata-tokenURI}."
      },
      "transferFrom(address,address,uint256)": {
        "details": "See {IERC721-transferFrom}."
      }
    },
    "version": 1
  },
  "userdoc": {
    "kind": "user",
    "methods": {},
    "version": 1
  }
}